:020000040800F2
:1000000080B485B000AF78600023FB6003E000BFE0
:10001000FB680133FB607B684FF4FA5203FB02F28A
:10002000FB689A42F3D800BF00BF1437BD4680BCBE
:10003000704780B500AF0F4B1B680E4A43F00103B9
:1000400013600D4B1B680C4A23F4406313600A4B8A
:100050001B68094A43F480631360084B1B68074A16
:1000600083F0200313604FF47A70FFF7C9FF00BFDD
:10007000F3E700BF303802400000024014000240A5
:0400000508000033BC
:00000001FF
